:020000040000FA
:1000000011EF2AF01200120042EF28F01200FFFF59
:10001000FFFFFFFFFFFFFFFF84EF28F0120001004A
:100020003E540000B4050000450000000501146BBB
:10003000156B166B176B186B196B1A6B1B6B1C6BA4
:100040001D6B010E006F230E016F450E026F670ED0
:10005000036F890E046FAB0E056FCD0E066FEF0EAA
:10006000076FFE0E086FDC0E096FBA0E0A6F980E4E
:100070000B6F760E0C6F540E0D6F320E0E6F100E4E
:100080000F6FF00E106FE10E116FD20E126FC30ED4
:10009000136F5E6B5F6B000CD9CFE6FFE1CFD9FF2A
:1000A000020EE12605015F5102E05F5187D05E51EB
:1000B00029E191EC0BF0DE6ADD6ADECF00F0DDCFE6
:1000C00001F0D890015004E6400E005C000E01588B
:1000D0000EE2DECFE9FFDDCFEAFF1E0EE926050EB8
:1000E000EA22EF6ADF2A010EE8E3DB2AE6D7050100
:1000F000146B156B166B176B186B196B1A6B1B6BEC
:10010000010E5E6FDE6ADD6ADECF00F0DDCF01F04A
:10011000D890015004E6140E005C000E01584DE228
:10012000DECF05F0DDCF06F0030E0516000E061635
:10013000030ED8800556000E0656080E286E296A52
:1001400005C02DF006C02EF085EC22F026C004F08C
:10015000DECFE9FFDDCFEAFFD890EA32E932D8906E
:10016000EA32E932D890E936EA36D890E936EA360A
:10017000000EE926050EEA2226501F0BEECF00F0F6
:10018000EECF01F0EECF02F0EECF03F007E0D89013
:100190000332023201320032E806F9E1DECFE9FF34
:1001A000DDCFEAFF600EE926050EEA2200C0EFFF70
:1001B000DF2A010EA9E3DB2AA7D7000E006E020E8C
:1001C000E15C02E2E16AE552E16E0050E552E7CF00
:1001D000D9FF1200D9CFE6FFE1CFD9FF030EE12608
:1001E000FE0EDB50DE6EDD6AFE0EDB5002E1000E1D
:1001F0004ED005015E5103E0030E5F6F48D05F51A2
:1002000002E05F5144D0020EDB6AFE0EDBCFF3FF4B
:10021000DB06F35000093AE005015F5137E1020EB9
:10022000DB50EA6A740FE96E050EEA22EF50E66EC3
:100230001CC5E9FF1DC5EAFF1C2B000E1D231E0E69
:10024000E926050EEA22E552E750EF6E080E142764
:10025000000E15231623172314511511161117110B
:100260000CE1182B000E19231A231B231851191106
:100270001A111B1102E1010E5F6F400E1C1903E100
:100280001D5101E110D8020EDB2ABFD7000E006E0F
:10029000030EE15C02E2E16AE552E16E0050E552D4
:1002A000E7CFD9FF1200D9CFE6FFE1CFD9FF3A0E51
:1002B000E126990EDE6E790EDE6E820EDE6E5A0E2D
:1002C000DD6EDD52DD52A10EF36E040EF3CFDBFFC7
:1002D000EB0EF36E050EF3CFDBFFD90EF36E060EB9
:1002E000F3CFDBFF6E0EF36E070EF3CFDBFFDC0EFA
:1002F000F36E080EF3CFDBFFBC0EF36E090EF3CFE7
:10030000DBFF1B0EF36E0A0EF3CFDBFF8F0EF36ED7
:100310000B0EF3CFDBFFD60EF36E0C0EF3CFDBFF2D
:10032000C10EF36E0D0EF3CFDBFF620EF36E0E0EF9
:10033000F3CFDBFFCA0EF36E0F0EF3CFDBFF100E11
:10034000DB6A110EDB6A100EDBCF00F0110EDBCF83
:1003500001F0D890015004E6100E005C000E015828
:1003600001E31BD1100EDBCFE9FF110EDBCFEAFF5B
:10037000D890E936EA36D890E936EA361E0EE926F4
:10038000050EEA22EFCF00F02A0E00C0DBFF2B0E95
:10039000DB6A2C0EDB6A2D0EDB6A2A0EDBCF00F047
:1003A0002B0EDBCF01F02C0EDBCF02F02D0EDBCFBE
:1003B00003F0180E1F0B07E0D89000360136023606
:1003C0000336E806F9E1100EDBCFE9FF110EDBCFB3
:1003D000EAFFD890E936EA36D890E936EA36000ED8
:1003E000E926060EEA2200C0EEFF01C0EEFF02C0C1
:1003F000EEFF03C0EEFF100EDBCFE9FF110EDBCFE7
:10040000EAFFD890E936EA36D890E936EA36010EA6
:10041000E926000EEA221E0EE926050EEA22EFCF9B
:1004200000F02A0E00C0DBFF2B0EDB6A2C0EDB6A0D
:100430002D0EDB6A2A0EDBCF00F02B0EDBCF01F096
:100440002C0EDBCF02F02D0EDBCF03F0100E1F0BB6
:1004500007E0D8900036013602360336E806F9E1A7
:10046000100EDBCFE9FF110EDBCFEAFFD890E936A3
:10047000EA36D890E936EA36000EE926060EEA2278
:100480000050EE120150EE120250EE120350EE1226
:10049000100EDBCFE9FF110EDBCFEAFFD890E93673
:1004A000EA36D890E936EA36020EE926000EEA224C
:1004B0001E0EE926050EEA22EFCF00F02A0E00C03C
:1004C000DBFF2B0EDB6A2C0EDB6A2D0EDB6A2A0E9D
:1004D000DBCF00F02B0EDBCF01F02C0EDBCF02F0D8
:1004E0002D0EDBCF03F0080E1F0B07E0D89000366F
:1004F000013602360336E806F9E1100EDBCFE9FFDC
:10050000110EDBCFEAFFD890E936EA36D890E9360B
:10051000EA36000EE926060EEA220050EE120150DD
:10052000EE120250EE120350EE12100EDBCFE9FF76
:10053000110EDBCFEAFFD890E936EA36D890E936DB
:10054000EA36030EE926000EEA221E0EE926050E03
:10055000EA22EFCF00F0016A026A036A100EDBCFD5
:10056000E9FF110EDBCFEAFFD890E936EA36D890E2
:10057000E936EA36000EE926060EEA220050EE12AF
:100580000150EE120250EE120350EE12100EDB2A52
:10059000110E01E2D8D6DB2AD6D6100EF36EDB6E32
:1005A000110EDB6A100EDBCF00F0110EDBCF01F075
:1005B000D890015004E6500E005C000E015801E393
:1005C000AAD2100EDBCF04F0110EDBCF05F0030E24
:1005D000045E000E055AD890055004E6280E045C0F
:1005E000000E055814E2100EDBCFE9FF110EDBCF31
:1005F000EAFF030EE95E000EEA5AD890E936EA36C1
:10060000D890E936EA36000EE926060E17D0100E0D
:10061000DBCFE9FF110EDBCFEAFF030EE95E000E30
:10062000EA5A280EE95E000EEA5AD890E936EA3610
:10063000D890E936EA36600EE926000EEA22EECFBF
:1006400000F0EECF01F0EECF02F0EFCF03F02A0E74
:1006500000C0DBFF2B0E01C0DBFF2C0E02C0DBFF56
:100660002D0E03C0DBFF100EDBCF04F0110EDBCF2D
:1006700005F0080E045E000E055AD890055004E6F9
:10068000280E045C000E055814E2100EDBCFE9FFC3
:10069000110EDBCFEAFF080EE95E000EEA5AD89091
:1006A000E936EA36D890E936EA36000EE926060E33
:1006B00017D0100EDBCFE9FF110EDBCFEAFF080EDB
:1006C000E95E000EEA5A280EE95E000EEA5AD8905A
:1006D000E936EA36D890E936EA36600EE926000EA9
:1006E000EA22EECF00F0EECF01F0EECF02F0EFCF36
:1006F00003F02E0E00C0DBFF2F0E01C0DBFF300E1B
:1007000002C0DBFF310E03C0DBFF100EDBCF04F0B5
:10071000110EDBCF05F00E0E045E000E055AD890C8
:10072000055004E6280E045C000E055814E2100E75
:10073000DBCFE9FF110EDBCFEAFF0E0EE95E000E04
:10074000EA5AD890E936EA36D890E936EA36000E09
:10075000E926060E17D0100EDBCFE9FF110EDBCF16
:10076000EAFF0E0EE95E000EEA5A280EE95E000E60
:10077000EA5AD890E936EA36D890E936EA36600E79
:10078000E926000EEA22EECF00F0EECF01F0EECF28
:1007900002F0EFCF03F0320E00C0DBFF330E01C0DA
:1007A000DBFF340E02C0DBFF350E03C0DBFF100E93
:1007B000DBCF04F0110EDBCF05F0100E045E000E4F
:1007C000055AD890055004E6280E045C000E055822
:1007D00014E2100EDBCFE9FF110EDBCFEAFF100EA3
:1007E000E95E000EEA5AD890E936EA36D890E93642
:1007F000EA36000EE926060E17D0100EDBCFE9FF11
:10080000110EDBCFEAFF100EE95E000EEA5A280E49
:10081000E95E000EEA5AD890E936EA36D890E93611
:10082000EA36600EE926000EEA22EECF00F0EECFA7
:1008300001F0EECF02F0EFCF03F0360E00C0DBFF89
:10084000370E01C0DBFF380E02C0DBFF390E03C0DC
:10085000DBFF100EDBCF00F0110EDBCF01F0D890E4
:10086000015004E6280E005C000E015801E3A0D000
:100870002E0EDBCF08F02F0EDBCF09F0300EDBCFD2
:100880000AF0310EDBCF0BF0D9502A0FE96EDACF28
:10089000EAFFEE50081AEE50091AEE500A1AEE500E
:1008A0000B1AD950320FE96EDACFEAFF0850EE1872
:1008B000046E0950EE18056E0A50EE18066E0B50C5
:1008C000EE18076ED950360FE96EDACFEAFF045002
:1008D000EE18006E0550EE18016E0650EE18026E0E
:1008E0000750EE18036E010E1F0B07E0D89000367C
:1008F000013602360336E806F9E12E0EDBCF14F09E
:100900002F0EDBCF15F0300EDBCF16F0310EDBCF24
:1009100017F0D9502A0FE96EDACFEAFFEE50141A19
:10092000EE50151AEE50161AEE50171AD950320F13
:10093000E96EDACFEAFF1450EE18106E1550EE187B
:10094000116E1650EE18126E1750EE18136ED95025
:10095000360FE96EDACFEAFF1050EE180C6E115028
:10096000EE180D6E1250EE180E6E1350EE180F6E3C
:100970001F0ED8900F320E320D320C32E806F9E11C
:100980000C5000120D5001120E5002120F500312A3
:10099000100EDBCFE9FF110EDBCFEAFFD890E9366E
:1009A000EA36D890E936EA36000EE926060EA3D0DC
:1009B0002E0EDBCF08F02F0EDBCF09F0300EDBCF91
:1009C0000AF0310EDBCF0BF0D9502A0FE96EDACFE7
:1009D000EAFFEE50081AEE50091AEE500A1AEE50CD
:1009E0000B1AD950320FE96EDACFEAFF0850EE1831
:1009F000046E0950EE18056E0A50EE18066E0B5084
:100A0000EE18076ED950360FE96EDACFEAFF0450C0
:100A1000EE18006E0550EE18016E0650EE18026ECC
:100A20000750EE18036E010E1F0B07E0D89000363A
:100A3000013602360336E806F9E12E0EDBCF14F05C
:100A40002F0EDBCF15F0300EDBCF16F0310EDBCFE3
:100A500017F0D9502A0FE96EDACFEAFFEE50141AD8
:100A6000EE50151AEE50161AEE50171AD950320FD2
:100A7000E96EDACFEAFF1450EE18106E1550EE183A
:100A8000116E1650EE18126E1750EE18136ED950E4
:100A9000360FE96EDACFEAFF1050EE180C6E1150E7
:100AA000EE180D6E1250EE180E6E1350EE180F6EFB
:100AB0001F0ED8900F320E320D320C32E806F9E1DB
:100AC0000C5000120D5001120E5002120F50031262
:100AD000100EDBCFE9FF110EDBCFEAFF280EE95E37
:100AE000000EEA5AD890E936EA36D890E936EA3666
:100AF000600EE926000EEA2200C0EEFF01C0EEFF04
:100B000002C0EEFF03C0EEFF100EDB2A110E01E261
:100B100049D5DB2A47D5160E00C5DBFF170E01C5E8
:100B2000DBFF180E02C5DBFF190E03C5DBFF1A0E33
:100B300004C5DBFF1B0E05C5DBFF1C0E06C5DBFF76
:100B40001D0E07C5DBFF1E0E08C5DBFF1F0E09C506
:100B5000DBFF200E0AC5DBFF210E0BC5DBFF220EDB
:100B60000CC5DBFF230E0DC5DBFF240E0EC5DBFF1E
:100B7000250E0FC5DBFF260E10C5DBFF270E11C5A6
:100B8000DBFF280E12C5DBFF290E13C5DBFF100E9D
:100B9000DB6A110EDB6A100EDBCF00F0110EDBCF2B
:100BA00001F0D890015004E6140E005C000E0158CC
:100BB00001E34ED1160EDBCF0CF0170EDBCF0DF09C
:100BC000180EDBCF0EF0190EDBCF0FF0050E1F0B4A
:100BD00007E0D8900C360D360E360F36E806F9E1F0
:100BE000160EDBCF10F0170EDBCF11F0180EDBCF97
:100BF00012F0190EDBCF13F01B0ED8901332123205
:100C000011321032E806F9E110500C1211500D1299
:100C100012500E1213500F121E0EDBCF14F01F0EC7
:100C2000DBCF15F0200EDBCF16F0210EDBCF17F057
:100C3000D9501A0FE96EDACFEAFFEE501416EE50D3
:100C40001516EE501616EE5017161A0EDBCF1CF0C6
:100C50001B0EDBCF1DF01C0EDBCF1EF01D0EDBCFFD
:100C60001FF01C1E1D1E1E1E1F1ED950220FE96ED6
:100C7000DACFEAFF1C50EE14186E1D50EE14196EF8
:100C80001E50EE141A6E1F50EE141B6E18501412E4
:100C9000195015121A5016121B50171214500C2608
:100CA00015500D2216500E2217500F22D950260F24
:100CB000E96EDACFEAFF0C50EE24086E0D50EE20FC
:100CC000096E0E50EE200A6E0F50EE200B6E100EC5
:100CD000DBCFE9FF110EDBCFEAFFD890E936EA3629
:100CE000D890E936EA36000EE926060EEA220850C8
:100CF000EE24046E0950EE20056E0A50EE20066EBA
:100D00000B50EE20076ED9CFE9FFDACFEAFF04508F
:100D1000EE24006E0550EE20016E0650EE20026EAD
:100D20000750EE20036E120E00C0DBFF130E01C051
:100D3000DBFF140E02C0DBFF150E03C0DBFFD95032
:100D4000220FE96EDACFEAFF260EEECFDBFF270E89
:100D5000EECFDBFF280EEECFDBFF290EEECFDBFF61
:100D6000D9501E0FE96EDACFEAFF220EEECFDBFF7D
:100D7000230EEECFDBFF240EEECFDBFF250EEECFF2
:100D8000DBFF1A0EDBCF00F01B0EDBCF01F01C0ED9
:100D9000DBCF02F01D0EDBCF03F01E0E1F0B07E0B2
:100DA000D8900036013602360336E806F9E11A0E0D
:100DB000DBCF04F01B0EDBCF05F01C0EDBCF06F003
:100DC0001D0EDBCF07F0020ED89007320632053237
:100DD0000432E806F9E104500012055001120650F1
:100DE0000212075003121E0E00C0DBFF1F0E01C0CF
:100DF000DBFF200E02C0DBFF210E03C0DBFFD9505A
:100E0000160FE96EDACFEAFF1A0EEECFDBFF1B0EEC
:100E1000EECFDBFF1C0EEECFDBFF1D0EEECFDBFFB8
:100E2000D950120FE96EDACFEAFF160EEECFDBFFD4
:100E3000170EEECFDBFF180EEECFDBFF190EEECF55
:100E4000DBFF100EDB2A110E01E2A5D6DB2AA3D6AA
:100E5000140EF36E100EF3CFDBFF110EDB6A100ED3
:100E6000DBCF00F0110EDBCF01F0D890015004E68B
:100E7000280E005C000E015801E337D1160EDBCFBF
:100E80000CF0170EDBCF0DF0180EDBCF0EF0190EA5
:100E9000DBCF0FF0050E1F0B07E0D8900C360D3698
:100EA0000E360F36E806F9E1160EDBCF10F0170EFE
:100EB000DBCF11F0180EDBCF12F0190EDBCF13F0E1
:100EC0001B0ED8901332123211321032E806F9E1BB
:100ED00010500C1211500D1212500E1213500F120E
:100EE0001E0EDBCF18F01F0EDBCF19F0200EDBCF6C
:100EF0001AF0210EDBCF1BF0D9501A0FE96EDACFB2
:100F0000EAFFEE50181AEE50191AEE501A1AEE5067
:100F10001B1AD950220FE96EDACFEAFF1850EE18EB
:100F2000146E1950EE18156E1A50EE18166E1B50EE
:100F3000EE18176E14500C2615500D2216500E2266
:100F400017500F22D950260FE96EDACFEAFF0C5066
:100F5000EE24086E0D50EE20096E0E50EE200A6E43
:100F60000F50EE200B6E100EDBCFE9FF110EDBCF22
:100F7000EAFFD890E936EA36D890E936EA36000E2C
:100F8000E926060EEA220850EE24046E0950EE20EF
:100F9000056E0A50EE20066E0B50EE20076ED950FB
:100FA000040FE96EDACFEAFF0450EE24006E05501C
:100FB000EE20016E0650EE20026E0750EE20036E0A
:100FC000120E00C0DBFF130E01C0DBFF140E02C0C7
:100FD000DBFF150E03C0DBFFD950220FE96EDACF1D
:100FE000EAFF260EEECFDBFF270EEECFDBFF280E4B
:100FF000EECFDBFF290EEECFDBFFD9501E0FE96EDF
:10100000DACFEAFF220EEECFDBFF230EEECFDBFFBF
:10101000240EEECFDBFF250EEECFDBFF1A0EDBCF6B
:1010200000F01B0EDBCF01F01C0EDBCF02F01D0E1B
:10103000DBCF03F01E0E1F0B07E0D8900036013601
:1010400002360336E806F9E11A0EDBCF04F01B0E78
:10105000DBCF05F01C0EDBCF06F01D0EDBCF07F05B
:10106000020ED8900732063205320432E806F9E162
:1010700004500012055001120650021207500312CC
:101080001E0E00C0DBFF1F0E01C0DBFF200E02C0E2
:10109000DBFF210E03C0DBFFD950160FE96EDACF5C
:1010A000EAFF1A0EEECFDBFF1B0EEECFDBFF1C0EAE
:1010B000EECFDBFF1D0EEECFDBFFD950120FE96E36
:1010C000DACFEAFF160EEECFDBFF170EEECFDBFF17
:1010D000180EEECFDBFF190EEECFDBFF100EDB2A72
:1010E000110E01E2BCD6DB2ABAD6280EF36E100E22
:1010F000F3CFDBFF110EDB6A100EDBCF00F0110E19
:10110000DBCF01F0D890015004E63C0E005C000EED
:10111000015801E36CD1160EDBCF0CF0170EDBCFBC
:101120000DF0180EDBCF0EF0190EDBCF0FF0050E11
:101130001F0B07E0D8900C360D360E360F36E8063A
:10114000F9E1160EDBCF10F0170EDBCF11F0180E01
:10115000DBCF12F0190EDBCF13F01B0ED890133239
:10116000123211321032E806F9E110500C1211500F
:101170000D1212500E1213500F121E0EDBCF14F070
:101180001F0EDBCF15F0200EDBCF16F0210EDBCFCC
:1011900017F0D9501A0FE96EDACFEAFFEE501416A5
:1011A000EE501516EE501616EE501716220EDBCF27
:1011B00018F0230EDBCF19F0240EDBCF1AF0250E2A
:1011C000DBCF1BF0D9501A0FE96EDACFEAFFEE50F1
:1011D0001816EE501916EE501A16EE501B1618502F
:1011E0001412195015121A5016121B501712220EF3
:1011F000DBCF1CF0230EDBCF1DF0240EDBCF1EF067
:10120000250EDBCF1FF0D9501E0FE96EDACFEAFFB3
:10121000EE501C16EE501D16EE501E16EE501F1608
:101220001C5014121D5015121E5016121F5017126A
:1012300014500C2615500D2216500E2217500F2256
:10124000D950260FE96EDACFEAFF0C50EE24086E73
:101250000D50EE20096E0E50EE200A6E0F50EE205B
:101260000B6E100EDBCFE9FF110EDBCFEAFF280E6D
:10127000E95E000EEA5AD890E936EA36D890E936A7
:10128000EA36600EE926000EEA220850EE24046ECB
:101290000950EE20056E0A50EE20066E0B50EE202F
:1012A000076ED950080FE96EDACFEAFF0450EE243A
:1012B000006E0550EE20016E0650EE20026E0750C3
:1012C000EE20036E120E00C0DBFF130E01C0DBFF29
:1012D000140E02C0DBFF150E03C0DBFFD950220F36
:1012E000E96EDACFEAFF260EEECFDBFF270EEECF58
:1012F000DBFF280EEECFDBFF290EEECFDBFFD95050
:101300001E0FE96EDACFEAFF220EEECFDBFF230ECF
:10131000EECFDBFF240EEECFDBFF250EEECFDBFFA3
:101320001A0EDBCF00F01B0EDBCF01F01C0EDBCF63
:1013300002F01D0EDBCF03F01E0E1F0B07E0D8904E
:101340000036013602360336E806F9E11A0EDBCF25
:1013500004F01B0EDBCF05F01C0EDBCF06F01D0EDC
:10136000DBCF07F0020ED890073206320532043286
:10137000E806F9E10450001205500112065002126D
:10138000075003121E0E00C0DBFF1F0E01C0DBFF63
:10139000200E02C0DBFF210E03C0DBFFD950160F69
:1013A000E96EDACFEAFF1A0EEECFDBFF1B0EEECFAF
:1013B000DBFF1C0EEECFDBFF1D0EEECFDBFFD950A7
:1013C000120FE96EDACFEAFF160EEECFDBFF170E33
:1013D000EECFDBFF180EEECFDBFF190EEECFDBFFFB
:1013E000100EDB2A110E01E287D6DB2A85D63C0ED1
:1013F000F36E100EF3CFDBFF110EDB6A100EDBCFA6
:1014000000F0110EDBCF01F0D890015004E6500E31
:10141000005C000E015801E33BD1160EDBCF0CF04F
:10142000170EDBCF0DF0180EDBCF0EF0190EDBCF51
:101430000FF0050E1F0B07E0D8900C360D360E3658
:101440000F36E806F9E1160EDBCF10F0170EDBCFF2
:1014500011F0180EDBCF12F0190EDBCF13F01B0EBC
:10146000D8901332123211321032E806F9E11050DE
:101470000C1211500D1212500E1213500F121E0E9C
:10148000DBCF18F01F0EDBCF19F0200EDBCF1AF0E8
:10149000210EDBCF1BF0D9501A0FE96EDACFEAFF2D
:1014A000EE50181AEE50191AEE501A1AEE501B1A76
:1014B000D950220FE96EDACFEAFF1850EE18146EF9
:1014C0001950EE18156E1A50EE18166E1B50EE18C5
:1014D000176E14500C2615500D2216500E22175060
:1014E0000F22D950260FE96EDACFEAFF0C50EE2416
:1014F000086E0D50EE20096E0E50EE200A6E0F5051
:10150000EE200B6E100EDBCFE9FF110EDBCFEAFFF2
:10151000280EE95E000EEA5AD890E936EA36D890ED
:10152000E936EA36600EE926000EEA220850EE247B
:10153000046E0950EE20056E0A50EE20066E0B5028
:10154000EE20076ED9500C0FE96EDACFEAFF045097
:10155000EE24006E0550EE20016E0650EE20026E65
:101560000750EE20036E120E00C0DBFF130E01C009
:10157000DBFF140E02C0DBFF150E03C0DBFFD950EA
:10158000220FE96EDACFEAFF260EEECFDBFF270E41
:10159000EECFDBFF280EEECFDBFF290EEECFDBFF19
:1015A000D9501E0FE96EDACFEAFF220EEECFDBFF35
:1015B000230EEECFDBFF240EEECFDBFF250EEECFAA
:1015C000DBFF1A0EDBCF00F01B0EDBCF01F01C0E91
:1015D000DBCF02F01D0EDBCF03F01E0E1F0B07E06A
:1015E000D8900036013602360336E806F9E11A0EC5
:1015F000DBCF04F01B0EDBCF05F01C0EDBCF06F0BB
:101600001D0EDBCF07F0020ED890073206320532EE
:101610000432E806F9E104500012055001120650A8
:101620000212075003121E0E00C0DBFF1F0E01C086
:10163000DBFF200E02C0DBFF210E03C0DBFFD95011
:10164000160FE96EDACFEAFF1A0EEECFDBFF1B0EA4
:10165000EECFDBFF1C0EEECFDBFF1D0EEECFDBFF70
:10166000D950120FE96EDACFEAFF160EEECFDBFF8C
:10167000170EEECFDBFF180EEECFDBFF190EEECF0D
:10168000DBFF100EDB2A110E01E2B8D6DB2AB6D63C
:10169000160EDB5005010027170EDB500123180E34
:1016A000DB500223190EDB5003231A0EDB500427F4
:1016B0001B0EDB5005231C0EDB5006231D0EDB50DA
:1016C00007231E0EDB5008271F0EDB500923200EB8
:1016D000DB500A23210EDB500B23220EDB500C279C
:1016E000230EDB500D23240EDB500E23250EDB5082
:1016F0000F23260EDB501027270EDB501123280E58
:10170000DB501223290EDB5013231C6B1D6B3A0E8A
:10171000E15C02E2E16AE552E16EE552E7CFD9FF12
:10172000120005011D3541E21C513708000E1D5500
:101730003CE21CC5E9FF1DC5EAFF1C2B000E1D2362
:101740001E0EE926050EEA22800EEF6E400E1DAF3A
:1017500002D0D89003D01C5D000E1D590DE21CC5AF
:10176000E9FF1DC5EAFF1C2B000E1D231E0EE926F6
:10177000050EEA22EF6AEAD753EC01F0380E0501B4
:101780001DAF02D0D89003D01C5D000E1D5930E271
:101790001CC5E9FF1DC5EAFF1C2B000E1D231E0EF4
:1017A000E926050EEA22EF6AE9D71CC5E9FF1DC547
:1017B000EAFF1C2B000E1D231E0EE926050EEA2251
:1017C000800EEF6E380E1DAF02D0D89003D01C5D96
:1017D000000E1D590DE21CC5E9FF1DC5EAFF1C2BBB
:1017E000000E1D231E0EE926050EEA22EF6AEAD737
:1017F00018C500F019C501F01AC502F01BC503F0A9
:10180000180ED8900332023201320032E806F9E1B4
:1018100000C056F500011AC557F5036A19C558F5F9
:1018200018C559F514C500F015C501F016C502F02C
:1018300017C503F0180ED89003320232013200327D
:10184000E806F9E100C05AF5000116C55BF515C5BB
:1018500000F016C501F017C502F0036A15C55CF566
:1018600014C55DF553EF01F0D9CFE6FFE1CFD9FF05
:10187000050EE126FA0EDB50400802E26E0EF8D1AA
:10188000DE6ADD6ADECF00F0DDCF01F0FA0EDB505C
:10189000000101AE02D0D89003D0005C000E0158C8
:1018A0001FE2FB0EDBCF00F0FC0EDBCF01F0DE50C1
:1018B0000024E96EDD500120EA6EEF50360AE66E34
:1018C000DECFE9FFDDCFEAFF740EE926050EEA223E
:1018D000E552E750EF6EDF2A010ED4E3DB2AD2D7C0
:1018E000FA0EDB50DE6EDD6ADECF00F0DDCF01F0F8
:1018F000D890015004E6400E005C000E01580FE243
:10190000DECFE9FFDDCFEAFF740EE926050EEA22FD
:10191000360EEF6EDF2A010EE7E3DB2AE5D716EC81
:1019200000F0E76E040EE7CFDBFFDB5001E0A8D04C
:10193000400EE66EEAEC00F0E552E76E040EE7CFEB
:10194000DBFFDB5001E0DCD0DE6ADD6ADECF00F0D9
:10195000DDCF01F0F70EDB50000101AE02D0D890D0
:1019600003D0005C000E01581EE2F80EDBCF00F041
:10197000F90EDBCF01F0DE500024E96EDD500120CE
:10198000EA6EEF50E66EDECFE9FFDDCFEAFF740EC0
:10199000E926050EEA22E552E750EF6EDF2A010E36
:1019A000D5E3DB2AD3D7F70EDBCFE6FFEAEC00F076
:1019B000E552E76E040EE7CFDBFFDB5001E0A0D07D
:1019C0004CEC00F0E76E040EE7CFDBFFDB5001E0EC
:1019D000A1D0DE6ADD6ADECF00F0DDCF01F0FA0EC5
:1019E000DB50000101AE02D0D89003D0005C000EA5
:1019F00001581FE2FB0EDBCF00F0FC0EDBCF01F045
:101A0000DE500024E96EDD500120EA6EEF505C0AE2
:101A1000E66EDECFE9FFDDCFEAFF740EE926050EA4
:101A2000EA22E552E750EF6EDF2A010ED4E3DB2A0B
:101A3000D2D7FA0EDB50DE6EDD6ADECF00F0DDCFEE
:101A400001F0D890015004E6400E005C000E0158F1
:101A50000FE2DECFE9FFDDCFEAFF740EE926050EC7
:101A6000EA225C0EEF6EDF2A010EE7E3DB2AE5D700
:101A700016EC00F0E76E040EE7CFDBFFDB5002E070
:101A8000650EF6D0400EE66EEAEC00F0E552E76E29
:101A9000040EE7CFDBFFDB5033E1DE6ADD6ADECF29
:101AA00000F0DDCF01F0D890015004E6140E005C88
:101AB000000E01581AE2DECFE9FFDDCFEAFF600E2B
:101AC000E926050EEA22EF50E66EDECFE9FFDDCF14
:101AD000EAFF740EE926050EEA22E552E750EF6EA2
:101AE000DF2A010EDCE3DB2ADAD7140EE66EEAEC1D
:101AF00000F0E552E76E040EE7CFDBFFDB5002E0BB
:101B0000660EB6D04CEC00F0E76E040EE7CFDBFFBC
:101B1000DB5002E0670EACD00F0E05017315E66EC8
:101B2000D950020FE96EDACFEAFFE552E750EE6EC8
:101B3000ED6A020EDBCFE9FF030EDBCFEAFF600E9A
:101B4000E926050EEA22EFCF00F0016A026A036A75
:101B5000009E016A026A036A180E1F0B07E0D89004
:101B60000036013602360336E806F9E1010EE76E6B
:101B7000020EDBCFE9FF030EDBCFEAFFE750E926D9
:101B8000000EEA22600EE926050EEA22EFCF04F0ED
:101B9000056A066A076A056A066A076A100E1F0B5D
:101BA00007E0D8900436053606360736E806F9E130
:101BB0000450001205500112065002120750031281
:101BC000020EE76EDBCFE9FF030EDBCFEAFFE75043
:101BD000E926000EEA22600EE926050EEA22EFCF82
:101BE00008F0096A0A6A0B6A096A0A6A0B6A080E2F
:101BF0001F0B07E0D890083609360A360B36E80680
:101C0000F9E108500012095001120A5002120B505B
:101C10000312030EE76E020EDBCFE9FF030EDBCFEC
:101C2000EAFFE750E926000EEA22600EE926050EDB
:101C3000EA22EFCF0CF00D6A0E6A0F6A0D6A0E6A87
:101C40000F6A0C5000120D5001120E5002120F506C
:101C50000312FD0EDBCFE9FFFE0EDBCFEAFF00C073
:101C6000EEFF01C0EEFF02C0EEFF03C0EEFF000E6C
:101C7000006E050EE15C02E2E16AE552E16E0050A1
:101C8000E552E7CFD9FF1200D9CFE6FFE1CFD9FF68
:101C9000FD0EDBCFE9FFFE0EDBCFEAFFEE6AED6A59
:101CA000FD0EDBCFE6FFFE0EDBCFE6FFF7D8E552F9
:101CB000E552E552E7CFD9FF1200D9CFE6FFE1CFD9
:101CC000D9FFE652FB0EDBCF00F0FC0EDBCF01F0BC
:101CD000013407E200503208000E015402E2FF0E08
:101CE00037D0DF6ADF50006E016AFB0EDBCF02F0F7
:101CF000FC0EDBCF03F001500318E8AE02D0033432
:101D000004D00250005C0350015815E2FD0EDBCFF9
:101D1000E9FFFE0EDBCFEAFF020EE926000EEA2203
:101D2000EACF01F0DF50E924E96E000EEA20EA6E06
:101D3000EF6ADF2AD7D7FD0EDBCFE9FFFE0EDBCF40
:101D4000EAFFFB0EDBCFEEFFFC0EDBCFEDFF000E5C
:101D5000E552E552E7CFD9FF1200D9CFE6FFE1CF38
:101D6000D9FF020EE126F90EDBCFE6FFFA0EDBCF3C
:101D7000E6FFFD0EDBCFE6FFFE0EDBCFE6FF9DDFCD
:101D8000E552E552E552E552E76E010EE7CFDBFF83
:101D9000DB5003E0010EDB503ED0DF6ADF50006E07
:101DA000016AF90EDBCF02F0FA0EDBCF03F001502F
:101DB0000318E8AE02D0033404D00250005C035094
:101DC000015828E2DF50E76EFB0EDBCFE9FFFC0E87
:101DD000DBCFEAFFE750E926000EEA22EF50E66E7D
:101DE000FD0EDBCFE9FFFE0EDBCFEAFF020EE92698
:101DF000000EEA22E9CF00F0EACF01F0DF500F0138
:101E0000E924E96E000EEA20EA6EE552E750EF6E33
:101E1000DF2AC4D7000E006E020EE15C02E2E16A26
:101E2000E552E16E0050E552E7CFD9FF1200D9CF5D
:101E3000E6FFE1CFD9FFFD0EDBCFE9FFFE0EDBCFE2
:101E4000EAFFEECF00F0EFCF01F0FC0EDB50026EA8
:101E5000036A03500118E8AE02D0013404D00050E8
:101E6000025C0150035802E3000E14D0FD0EDBCFDC
:101E7000E9FFFE0EDBCFEAFF020EE926000EEA22A2
:101E8000EACF01F0FC0EDB50E924E96E000EEA20F7
:101E9000EA6EEF50E552E7CFD9FF1200D9CFE6FF47
:101EA000E1CFD9FFE652DF6A320EDF5C13E2FD0EAE
:101EB000DBCFE9FFFE0EDBCFEAFF020EE926000EC4
:101EC000EA22DF50E924E96E000EEA20EA6EEF6AAA
:101ED000DF2AEAD7E552E552E7CFD9FF1200D9CF82
:101EE000E6FFE1CFD9FFE652FB0EDBCFE9FFFC0EA8
:101EF000DBCFEAFFEECFE6FFEFCFE6FFFD0EDBCF55
:101F0000E6FFFE0EDBCFE6FFD8DEE552E552E552F6
:101F1000E552DF6ADF50006E016AFB0EDBCFE9FF9E
:101F2000FC0EDBCFEAFFEECF02F0EFCF03F0015063
:101F30000318E8AE02D0033404D00250005C035012
:101F4000015830E2FB0EDBCFE9FFFC0EDBCFEAFFEE
:101F5000020EE926000EEA22E9CF02F0EACF03F0F2
:101F6000DF500F01E924E96E000EEA20EA6EEF501F
:101F7000E66EFD0EDBCFE9FFFE0EDBCFEAFF020EC1
:101F8000E926000EEA22E9CF00F0EACF01F0DF50A7
:101F9000E924E96E000EEA20EA6EE552E750EF6EA2
:101FA000DF2AB8D7E552E552E7CFD9FF1200D9CFE3
:101FB000E6FFE1CFD9FF0E0EE126FD0EDBCFE6FFF7
:101FC000FE0EDBCFE6FFFCEC15F0E552E552F3CF59
:101FD00000F0F4CF01F0030ED89001320032E80493
:101FE000FBE1010E0026000E01220B0E00C0DBFFFC
:101FF000FB0EDBCFE6FFFC0EDBCFE6FFFCEC15F0C3
:10200000E552E552F3CF00F0F4CF01F0030ED89083
:1020100001320032E804FBE1010E0026000E01222D
:102020000C0E00C0DBFFDBCFE6FF0B0EDB50E552F2
:10203000E724E76E0D0EE7CFDBFFDF6A320EDF5CD1
:1020400009E2DF50EA6A000FE96E020EEA22EF6A47
:10205000DF2AF4D7DF6A0C0EDB50DF5C01E3F4D03B
:10206000010EDB6A0B0EDB50F36E010EDBCFF4FFCB
:10207000F350F45C01E3E6D0010EDB50DF24E76EA1
:10208000030EE7CFDBFFDB28EA6A000FE96E020EE2
:10209000EA22EFCF03F003C004F0036A030EDB5023
:1020A000EA6A000FE96E020EEA22EF500001031007
:1020B000006E04C001F0026A080E00C0DBFF090ECA
:1020C00004C0DBFF0A0E02C0DBFFFD0EDBCFE9FF21
:1020D000FE0EDBCFEAFF020EE926000EEA22E9CF70
:1020E00009F0EACF0AF0010EDB500F01E924E96E96
:1020F000000EEA20EA6EEF50076E086AFB0EDBCF97
:10210000E9FFFC0EDBCFEAFF020EE926000EEA2211
:10211000E9CF05F0EACF06F0DF50E924E96E000EC2
:10212000EA20EA6EEF50036E046A286E04C029F0BC
:1021300007C02DF008C02EF0B2EC22F026C000F04F
:1021400027C001F0026AD950080FE96EDACFEAFF22
:102150002650EE260150EE220250EE22030EDB50F6
:10216000EA6A000FE96E020EEA22080EDBCFEFFFEB
:10217000036ED950080FE96EDACFEAFF03501F0B48
:10218000EECF00F0EECF01F0EECF02F006E0D890F7
:10219000023201320032E806FAE1030EDB28EA6A75
:1021A000000FE96E020EEA2200C0EFFF080EDBCF3F
:1021B00000F0090EDBCF01F00A0EDBCF02F0006A5F
:1021C000016A010E021600500110021038E00D0ED7
:1021D000DB50FE0FF36E030EDB50F35C30E0030EBA
:1021E000DB50020FE76E020EE7CFDBFF0D0EDB5078
:1021F000F36E020EDBCFF4FFF350F45C20E2020E2C
:10220000DB50EA6A000FE96E020EEA22EFCF00F01F
:10221000FF0E005C09E2020EDB50EA6A000FE96E75
:10222000020EEA22EF2A0BD0020EDB50EA6A000F00
:10223000E96E020EEA22EF6A020EDB2AD7D7010E00
:10224000DB2A10D7DF2A07D7DF6A320EDF5C22E2F3
:10225000DF50EA6A000FE96E020EEA22EF50E66EE6
:10226000FD0EDBCFE9FFFE0EDBCFEAFF020EE92613
:10227000000EEA22E9CF00F0EACF01F0DF500F01B3
:10228000E924E96E000EEA20EA6EE552E750EF6EAF
:10229000DF2ADBD70D0EDB50E66EFD0EDBCFE9FF4C
:1022A000FE0EDBCFEAFFE552E750EE6EED6A0E0E52
:1022B000E15C02E2E16AE552E16EE552E7CFD9FF67
:1022C0001200D9CFE6FFE1CFD9FFFD0EDBCFE6FF4D
:1022D000FE0EDBCFE6FF320EE66E020EE66EFFDD8F
:1022E000E552E552E552E552F90EDBCFE6FFFA0E74
:1022F000DBCFE6FF320EE66E020EE66E9ED8E552AA
:10230000E552E552E552FD0EDBCFE6FFFE0EDBCFD8
:10231000E6FFC4DDE552E552FD0EDBCFE9FFFE0E20
:10232000DBCFEAFF020EE926000EEA22010EEF6E75
:10233000FD0EDBCFE9FFFE0EDBCFEAFF010EEE6EF6
:10234000ED6AFB0EDBCFE6FFFC0EDBCFE6FF660E91
:10235000E66E020EE66EC3DDE552E552E552E55249
:10236000660EE66E020EE66EFCEC15F0E552E552E6
:10237000F3CF00F0F4CF01F0030ED8900132003219
:10238000E804FBE10050E66E660EE66E020EE66EB5
:102390004EDDE552E552E55200094BE0E66A660E75
:1023A000E66E020EE66E43DDE552E552E552010BA4
:1023B00020E0320EE66E020EE66EFD0EDBCFE6FF8B
:1023C000FE0EDBCFE6FFF3DDE552E552E552E552C6
:1023D000F90EDBCFE6FFFA0EDBCFE6FFFD0EDBCF1B
:1023E000E6FFFE0EDBCFE6FF28D8E552E552E552C8
:1023F000E552660EE66E020EE66EF3D8E552E55241
:10240000320EE66E020EE66E320EE66E020EE66EDC
:10241000CEDDE552E552E552E552F90EDBCFE6FF9F
:10242000FA0EDBCFE6FF320EE66E020EE66E05D840
:1024300093D7E552E7CFD9FF1200D9CFE6FFE1CF1E
:10244000D9FF080EE126FD0EDBCFE6FFFE0EDBCF47
:10245000E6FFD2DBE552E552020EF3CFDBFF030EBF
:10246000F4CFDBFFFB0EDBCFE6FFFC0EDBCFE6FF9E
:10247000C3DBE552E552040EF3CFDBFF050EF4CFCC
:10248000DBFF020EDBCF02F0030EDBCF03F0040E06
:10249000DB50025C006E050EDB500358016E060E29
:1024A00000C0DBFF070E01C0DBFF9A0EE66E020ED6
:1024B000E66E44EC0EF0E552E552060EDBCF00F07E
:1024C000070EDBCF01F0013404E200500008000EDB
:1024D000015426E3FB0EDBCFE6FFFC0EDBCFE6FF6D
:1024E000FD0EDBCFE6FFFE0EDBCFE6FF89EC16F03C
:1024F000E552E552E552E552000969E0FB0EDBCFFB
:10250000E6FFFC0EDBCFE6FFFD0EDBCFE6FFFE0EA7
:10251000DBCFE6FF5CDAE552E552E552E55257D0F3
:10252000FB0EDBCFE6FFFC0EDBCFE6FF9A0EE66E7E
:10253000020EE66ED4DCE552E552E552E552060E97
:10254000DBCFE6FF070EDBCFE6FF9A0EE66E020E4C
:10255000E66EDFD8E552E552E552E552060EDBCFD6
:10256000DEFFDBCFDDFFDECF00F0DDCF01F00001CD
:10257000800E01142CE19A0EE66E020EE66EFD0E40
:10258000DBCFE6FFFE0EDBCFE6FFC3DBE552E55215
:10259000E552E55200090FE09A0EE66E020EE66E75
:1025A000FD0EDBCFE6FFFE0EDBCFE6FF10DAE552D5
:1025B000E552E552E5529A0EE66E020EE66E11D82D
:1025C000E552E552DF06010ECEE2DB06CCD7080E5F
:1025D000E15C02E2E16AE552E16EE552E7CFD9FF44
:1025E0001200D9CFE6FFE1CFD9FF030EE126DF6A63
:1025F000DF50006E016AFD0EDBCFE9FFFE0EDBCF80
:10260000EAFFEECF02F0EFCF03F001500318E8AE7F
:1026100002D0033404D00250005C035001586FE232
:10262000010EDB6A020EDB6ADF50006E016AFD0EEE
:10263000DBCFE9FFFE0EDBCFEAFFEECF02F0EFCFFC
:1026400003F00206000E035A01500318E8AE02D050
:10265000033404D00250005C0350015823E2FD0E05
:10266000DBCFE9FFFE0EDBCFEAFF020EE926000E0C
:10267000EA22DF28E924E96E000EEA20EA6EEF5034
:10268000006E016A010E0016000E0116070ED890AA
:1026900000360136E804FBE1010E00C0DBFF020E4C
:1026A00001C0DBFFFD0EDBCFE9FFFE0EDBCFEAFF53
:1026B000020EE926000EEA22DF50E924E96E000E40
:1026C000EA20EA6EEF407F0BE76E010EDBCF02F0EF
:1026D000020EE7500212FD0EDBCFE9FFFE0EDBCF4C
:1026E000EAFF020EE926000EEA22DF50E924E96E35
:1026F000000EEA20EA6E02C0EFFFDF2A79D7030E50
:10270000E15C02E2E16AE552E16EE552E7CFD9FF12
:102710001200D9CFE6FFE1CFD9FF080EE126FD0E6A
:10272000DBCFE6FFFE0EDBCFE6FF66DAE552E552D1
:10273000F3CFDEFFF4CFDDFFFB0EDBCF00F0FC0EAE
:10274000DBCF01F0030ED89001320032E804FBE148
:10275000020E00C0DBFF030E01C0DBFF070EE76EB9
:10276000FB0EDBCF00F0FC0EDBCF01F0E7500016D4
:10277000016A040E00C0DBFFFB0EDBCF02F0FC0E93
:10278000DBCF03F0DE500224006EDD500320016E2B
:10279000030E0F0B05E0D89001320032E806FBE192
:1027A000010E0026000E012200C0E6FF01C0E6FF78
:1027B000A00EE66E040EE66E5DEC0EF0E552E552FC
:1027C000E552E552A0C400F0A1C401F00006000EDD
:1027D000015A050E00C0DBFFDBCF00F0003401E33F
:1027E000DCD0050EDBCF02F0036A02BE0368020EE6
:1027F000DB50025C006E030EDB500358016E060EC8
:1028000000C0DBFF070E01C0DBFF060EDBCF00F0D0
:10281000070EDBCF01F00001800E011401E0BDD0F6
:10282000060EDBCF00F0070EDBCF01F0FD0EDBCF95
:10283000E9FFFE0EDBCFEAFFEECF02F0EFCF03F0B1
:1028400001500318E8AE02D0033404D00250005CFB
:102850000350015835E2FD0EDBCFE9FFFE0EDBCF62
:10286000EAFF020EE926000EEA22E9CF04F0EACFE1
:1028700005F0060EDB50E924E96E070EDB50EA2076
:10288000EA6EEF50026E036A040EDB5002C000F0E5
:1028900003C001F005E0D89000360136E804FBE102
:1028A000FF0E0016000E0116050EDBCFE9FFEA6AE7
:1028B000E9BEEA68A20EE926040EEA220050EF12F1
:1028C000060EDBCF00F0070EDBCF01F00006000E96
:1028D000015AD890015004E6000E005C000E015829
:1028E00059E3060EDBCF02F0070EDBCF03F0020642
:1028F000000E035AFD0EDBCFE9FFFE0EDBCFEAFF31
:10290000EECF04F0EFCF05F003500518E8AE02D08B
:10291000053404D00450025C055003583BE2040E19
:10292000DBCFE6FF080EE552D880E754056EFD0EBA
:10293000DBCFE9FFFE0EDBCFEAFF020EE926000E39
:10294000EA22E9CF01F0EACF02F0060EDBCF03F076
:10295000070EDBCF04F00306000E045AE9500324EF
:10296000E96EEA500420EA6EEF5005C0E7FFE75237
:1029700004E0E8427F0BE706FCE1006E050EDBCFCA
:10298000E9FFEA6AE9BEEA68A20EE926040EEA2235
:102990000050EF12050EDB061FD7A00EE66E040EE8
:1029A000E66EFD0EDBCFE6FFFE0EDBCFE6FF6FEC43
:1029B0000FF0E552E552E552E552080EE15C02E205
:1029C000E16AE552E16EE552E7CFD9FF1200D9CFB7
:1029D000E6FFE1CFD9FF060EE126040EDB6A050E05
:1029E000DB6AFD0EDBCFE9FFFE0EDBCFEAFFEECFA9
:1029F00002F0EFCF03F0FB0EDBCFE9FFFC0EDBCFE5
:102A0000EAFFEECF04F0EFCF05F005500318E8AE73
:102A100002D0033404D00250045C0350055805E290
:102A2000FD0EDBCFE9FFFE0E04D0FB0EDBCFE9FF8E
:102A3000FC0EDBCFEAFFEECF00F0EFCF01F0010E8E
:102A400000C0DBFFDBCFE6FFE66AA00EE66E040EF9
:102A5000E66E5DEC0EF0E552E552E552E552DF6AB6
:102A6000010EDB50DF5C01E3ADD0040EDBCF28F0BC
:102A7000050EDBCF29F0020E28C0DBFF030E29C0B4
:102A8000DBFF040EDB6A050EDB6ADF50006E016AB5
:102A9000FD0EDBCFE9FFFE0EDBCFEAFFEECF02F04B
:102AA000EFCF03F001500318E8AE02D0033404D096
:102AB0000250005C035001581EE2FD0EDBCFE9FF1F
:102AC000FE0EDBCFEAFF020EE926000EEA22EACF75
:102AD00003F0DF50E924E96E000EEA20EA6EEF50C1
:102AE000006E016AD950020FE96EDACFEAFF00509A
:102AF000EE260150ED22DF50006E016AFB0EDBCFA7
:102B0000E9FFFC0EDBCFEAFFEECF02F0EFCF03F0E0
:102B100001500318E8AE02D0033404D00250005C28
:102B20000350015820E2FB0EDBCFE9FFFC0EDBCFA8
:102B3000EAFF020EE926000EEA22E9CF02F0EACF10
:102B400003F0DF50E924E96E000EEA20EA6EEF5050
:102B5000006E016AD950020FE96EDACFEAFF005029
:102B6000EE5E0150ED5A020E030EDBCF01F00001C4
:102B7000800E011414E0020EDBCF00F0030EDBCF59
:102B800001F0000E0026010E0122020E00C0DBFF44
:102B9000030E01C0DBFF040EDB68050EDB68FF0ED1
:102BA000E76E020EDBCF00F0030EE7500016016A5D
:102BB000DF50EA6AA20FE96E040EEA2200C0EFFFBE
:102BC000DF2A4ED7A00EE66E040EE66EFD0EDBCFBA
:102BD000E6FFFE0EDBCFE6FF6FEC0FF0E552E552AD
:102BE000E552E552060EE15C02E2E16AE552E16E71
:102BF000E552E7CFD9FF1200D9CFE6FFE1CFD9FFE9
:102C0000050EE126DE6ADD6A020EDB6ADB50006E2D
:102C1000016AFD0EDBCFE9FFFE0EDBCFEAFFEECF50
:102C200002F0EFCF03F001500318E8AE02D00334F6
:102C300004D00250005C0350015859E2FD0EDBCF76
:102C4000E9FFFE0EDBCFEAFF020EE926000EEA22C4
:102C5000020EDB50E924E96E000EEA20EA6EEF5026
:102C600043E0010EF36E040EF3CFDBFF030EDB6ACD
:102C7000080EF36E030EDBCFF4FFF350F45C34E286
:102C8000040EDBCFE6FFFD0EDBCFE9FFFE0EDBCF50
:102C9000EAFF020EE926000EEA22020EDB50E924CA
:102CA000E96E000EEA20EA6EEF50E552E71413E0F9
:102CB000020EDB50026E036A030ED8900236033612
:102CC000E804FBE1030EDB500224006E000E03203B
:102CD00000C0DEFFDD6E040EDB50020D040EF3CFEC
:102CE000DBFF030EDB2AC4D7020EDB2A8FD7DECF31
:102CF00000F0DDCF01F000C0F3FF01C0F4FF050ECE
:102D0000E15C02E2E16AE552E16EE552E7CFD9FF0C
:102D10001200D9CFE6FFE1CFD9FF070EE126010E61
:102D2000DF6EFD0EDBCFE9FFFE0EDBCFEAFFEE50DC
:102D3000ED1009E0FB0EDBCFE9FFFC0EDBCFEAFF75
:102D4000EE50ED1002E1010ED9D0FD0EDBCFE6FF13
:102D5000FE0EDBCFE6FF50DFE552E552F3CF00F089
:102D6000F4CF01F0030ED89001320032E804FBE109
:102D7000010E0026000E0122010E00C0DBFFFB0E3B
:102D8000DBCFE6FFFC0EDBCFE6FF36DFE552E55298
:102D9000F3CF00F0F4CF01F0030ED89001320032EF
:102DA000E804FBE1010E0026000E0122020E00C025
:102DB000DBFF010EDBCF00F0020EDB50D8800054A9
:102DC00002E2010E01D0020EDB50E76E030EE7CFE8
:102DD000DBFFDB04E76E040EE7CFDBFFDBCF00F0A9
:102DE000003401E38AD0050EDB6A060EDB6A040EAE
:102DF000DBCF00F0016A00BE0168FD0EDBCFE9FF0A
:102E0000FE0EDBCFEAFFEECF02F0EFCF03F0015072
:102E10000318E8AE02D0033404D00250005C035023
:102E200001581DE2FD0EDBCFE9FFFE0EDBCFEAFF0E
:102E3000020EE926000EEA22E9CF00F0EACF01F007
:102E4000040EDBCF02F0036A02BE036800500224C6
:102E5000E96E01500320EA6E060EEFCFDBFF040E91
:102E6000DBCF00F0016A00BE0168FB0EDBCFE9FF9B
:102E7000FC0EDBCFEAFFEECF02F0EFCF03F0015004
:102E80000318E8AE02D0033404D00250005C0350B3
:102E900001581DE2FB0EDBCFE9FFFC0EDBCFEAFFA2
:102EA000020EE926000EEA22E9CF00F0EACF01F097
:102EB000040EDBCF02F0036A02BE03680050022456
:102EC000E96E01500320EA6E050EEFCFDBFF060E20
:102ED000DBCF00F0050EDB50D88000540EE3050E6A
:102EE000DB50F36E060EDBCFF4FFF350F45C02E22E
:102EF000DF6A03D0040EDB0671D7DF50006E070EC9
:102F0000E15C02E2E16AE552E16E0050E552E7CF92
:102F1000D9FF1200D9CFE6FFE1CFD9FFFE0EDB507B
:102F2000A96EFD0EDB50A86EA69CA69EA698A68450
:102F3000F29E550EA76EAA0EA76EA682F28EA694DA
:102F4000A6B2FED7E552E7CFD9FF1200D9CFE6FFF0
:102F5000E1CFD9FFFE0EDB50A96EA69CA69EA698D7
:102F6000A680FC0EDBCFE9FFFD0EDBCFEAFFA8CF8A
:102F7000EFFFE552E7CFD9FF1200D9CFE6FFE1CF4F
:102F8000D9FF020EE126F00EC1140709C16E929816
:102F90008098939A819A939C819C939E819E94940D
:102FA0008294949C829C949E829E8F0ED31470096E
:102FB000D36E0501C069DF6A080EDF5C18E2D950E4
:102FC000010FE66E000EDA20E66E080EDF02F35007
:102FD000100FE66EBBDFE552E552E552010EDB5005
:102FE000FF0803E0DFCFC0F502D0DF2AE5D7000EEF
:102FF0000501C05D01E2C06B9384F18EDF6A040EAF
:10300000DF5C0AE2DF50EA6A410FE96E010EEA2254
:10301000010EEF6EDF2AF3D7F09EF198F08872EC84
:103020001FF0F29ED08EA28A0E0ECD6E800ECF6E55
:10303000CE6A9D809F80CD80F28CF28E020EE15C84
:1030400002E2E16AE552E16EE552E7CFD9FF1200F4
:10305000D9CFE6FFE1CFD9FF630EE126D9503D0F6E
:10306000E96EDACFEAFF410EEE6E4C0EEE6E540EB4
:10307000EE6E200EEE6E320EEE6E460EEE6E410ECF
:10308000EE6EEE6A820EEE6ED950460FE96EDACF22
:10309000EAFF200EEE6E200EEE6E310EEE6E370E53
:1030A000EE6E300EEE6E330EEE6E320EEE6E300EB3
:1030B000EE6EEE6AD9504F0FE96EDACFEAFF570E87
:1030C000EE6E610EEE6E690EEE6E740EEE6E2E0EEC
:1030D000EE6E2E0EEE6E200EEE6E200EEE6EEE6A90
:1030E000010EF36E610EF3CFDBFF620EDB6A0501AA
:1030F000C62B030E0501C615E76E5E0EE7CFDBFF9C
:103100000501C605030BE76E5F0EE7CFDBFF020E7E
:103110000501C65D030BE76E600EE7CFDBFF815054
:10312000040B01E0010EE66E5E0EDB50EA6A410F11
:10313000E96E010EEA22E552E750EF6E620EDB6A9D
:1031400081A824D05E0EDB50EA6A410FE96E010EC1
:10315000EA22EF5012E15F0EDB50EA6A410FE96E9E
:10316000010EEA22EF5009E1600EDB50EA6A410FDE
:10317000E96E010EEA22EF0403E00501C75105E004
:10318000010EF36E620EF3CFDBFF1AD05E0EDB5042
:10319000EA6A410FE96E010EEA22EF5009E15F0E83
:1031A000DB50EA6A410FE96E010EEA22EF0403E008
:1031B0000501C75105E0010EF36E620EF3CFDBFF90
:1031C000620EDB5039E0600EC0C5DBFF5F0EDB68CE
:1031D0000501C02B080E0501C05D02E30501C06BAF
:1031E000600EDB500501C05D01E114D0D9505F0FC6
:1031F000E66E000EDA20E66E080E0501C003F350FD
:10320000100FE66EA3DEE552E552E5525F0EDB508D
:10321000FF08DEE0600EDB500501C05D03E0050144
:103220003F0EC56F0501C76BB4C5C1F5B5C5C2F585
:10323000B6C5C3F5B7C5C4F581A808D0B4C5C1F5F6
:10324000B5C5C2F5B6C5C3F5B7C5C4F5C10EE96EBF
:10325000050EEA6EEE500501B45D006EEE500501FC
:10326000B559016EEE500501B659026EEE500501DA
:10327000B759036E3C0E005C000E0158000E025858
:10328000000E035817E30501010EC86F67EC1FF02D
:103290006D96D39E0501C85102E00300FBD7B4C56B
:1032A000C1F5B5C5C2F5B6C5C3F5B7C5C4F56D86DC
:1032B00072EC1FF03F0E0501C55D01E017D205015C
:1032C000C56BB80EE96E050EEA6EEE500501B45DF1
:1032D000086EEE500501B559096EEE500501B6595C
:1032E0000A6EEE500501B7590B6E08C026F009C0F2
:1032F00027F00AC028F00BC029F0AAEC21F027C063
:1033000004F028C005F029C006F02AC007F0BCC5AB
:103310002CF0BDC52DF0BEC52EF0BFC52FF004C0EA
:1033200027F005C028F006C029F007C02AF018ECE5
:1033300022F0D0EC22F00501B4512624006E0501E4
:10334000B5512720016E0501B6512820026E0501F6
:10335000B7512920036E040E00C0DBFF050E01C02B
:10336000DBFF060E02C0DBFF070E03C0DBFF040E0F
:10337000DBCF26F0050EDBCF27F0060EDBCF28F0E3
:10338000070EDBCF29F01E0E2B6E2C6A2D6A2E6ADB
:10339000DDEC29F026C0DEFF27C0DEFF28C0DEFFFF
:1033A00029C0DDFFDD52DD52040EDBCF26F0050E15
:1033B000DBCF27F0060EDBCF28F0070EDBCF29F09E
:1033C0001E0E2B6E2C6A2D6A2E6ADDEC29F00C0E77
:1033D00022C0DBFF0D0E23C0DBFF0E0E24C0DBFF7F
:1033E0000F0E25C0DBFF5E0EDB6A080EF36E5E0E6D
:1033F000DBCFF4FFF350F45C28E2D9505F0FE66EA8
:10340000000EDA20E66E5E0EDBCFE6FF080E050149
:10341000C003F350100FE552E724E66E97DDE55246
:10342000E552E552D950350F006EDACF01F05E0E4D
:10343000DB500F010024E96E000E0120EA6E5F0EE2
:10344000DBCFEFFF5E0EDB2AD0D7350EDB50FF0857
:103450001EE1E66AD8EC1FF0E552D9503D0FE66E4A
:10346000000EDA20E66EE6EC1FF0E552E552400E63
:10347000E66ED8EC1FF0E552D950460FE66E000E0E
:10348000DA20E66EE6EC1FF0E552E5522FD1D95076
:10349000340FE66E000EDA20E66EC0C5E6FF56DD9C
:1034A000E552E552E5525E0EDB6A340EDB50F36EF8
:1034B0005E0EDBCFF4FFF350F45C28E2D9505F0FCF
:1034C000E66E000EDA20E66E5E0EDBCFE6FF140E2F
:1034D0000501C003F350500FE552E724E66E36DDD8
:1034E000E552E552E552D950200F006EDACF01F0D7
:1034F0005E0EDB500F010024E96E000E0120EA6E23
:103500005F0EDBCFEFFF5E0EDB2ACFD7070EF36E29
:103510005C0EF3CFDBFF5D0EDB6A5C0EDBCF00F0F1
:103520005D0EDBCF01F00001800E011443E1D9CF25
:10353000E9FFDACFEAFFEECF02F0EECF03F0EECFF5
:1035400004F0EFCF05F00250E66ED950180F006E70
:10355000DACF01F05C0EDB500024E96E5D0EDB502B
:103560000120EA6EE552E750EF6ED9CFE9FFDACFDE
:10357000EAFFEECF00F0EECF01F0EECF02F0EFCF9A
:1035800003F0080ED8900332023201320032E8060E
:10359000F9E100C0DFFF010E01C0DBFF020E02C037
:1035A000DBFF030E03C0DBFF5C0EDB065D0E01E2FA
:1035B000DB06B3D7400EE66ED8EC1FF0E552080EDE
:1035C000E66ED950180FE66E000EDA20E66E340E65
:1035D000DBCFE6FFD950200FE66E000EDA20E66E54
:1035E000D950080FE66E000EDA20E66E34EC0CF0CF
:1035F000026E080EE15E0250F3CF00F0F4CF01F04E
:103600000050011065E1060EE66ED950080FE96E14
:10361000DACFEAFFEECFE6FFEECFE6FFEECFE6FF32
:10362000EFCFE6FF91EC20F0006E050EE15E00505A
:10363000200EE66EB9EC1FF0E5521E0E046E056A10
:10364000066A076AD9500C0FE96EDACFEAFFEE502E
:10365000045C006EEE500558016EEE500658026E86
:10366000EE500758036E0A0E005C000E0158000E63
:103670000258000E035827E2010EE66E1E0E046E7D
:10368000056A066A076AD9500C0FE96EDACFEAFFBD
:10369000EE50045C006EEE500558016EEE50065878
:1036A000026EEE500758036E00C0E6FF01C0E6FF51
:1036B00002C0E6FF03C0E6FF91EC20F0086E050EA5
:1036C000E15E085005D0200EE66EB9EC1FF0E55221
:1036D000E66AD8EC1FF0E552D950350FE66E000EC1
:1036E000DA20E66EE6EC1FF0E552E5526DB604D046
:1036F000FC0ED3140209D36E060E0501F95D01E03C
:103700002BD3400EE66E000EE66E010EE66E34EC34
:1037100027F0E552E552E552000801E31DD3540EAF
:103720000101005D01E003D1140EDB6A150EDB6AB6
:10373000160EDB6A170EDB6A010EF36E580EF3CF1E
:10374000DBFF590EDB6AD950580FE96EDACFEAFF7A
:10375000080ED880EE54000EED544FE3580EDBCF28
:10376000E9FF590EDBCFEAFF000EE926010EEA223F
:10377000EFCF00F0016A026A036AD950140FE96EB4
:10378000DACFEAFF0050EE120150EE120250EE12B4
:103790000350EE12580EDBCF00F0590EDBCF01F0D4
:1037A000080E005C000E015822E2140EDBCF00F080
:1037B000150EDBCF01F0160EDBCF02F0170EDBCFBC
:1037C00003F0080E1F0B07E0D890003601360236D2
:1037D0000336E806F9E1140E00C0DBFF150E01C048
:1037E000DBFF160E02C0DBFF170E03C0DBFF580E17
:1037F000DB2A590E01E3DB2AA6D70501B851B9111E
:10380000BA11BB1103E0010109051EE1140EDBCF63
:10381000B4F5150EDBCFB5F5160EDBCFB6F5170EEA
:10382000DBCFB7F50501BC6BBD6BBE6BBF6B140E78
:10383000DBCFB8F5150EDBCFB9F5160EDBCFBAF539
:10384000170EDBCFBBF567D0D950140FE96EDACF76
:10385000EAFF0501B451EE5C006E0501B551EE586A
:10386000016E0501B651EE58026E0501B751EE58D2
:10387000036E00C026F001C027F002C028F003C08C
:1038800029F0AAEC21F027C0BCF528C0BDF529C05D
:10389000BEF52AC0BFF5B80EE96E050EEA6EEE5011
:1038A0000501B45D046EEE500501B559056EEE508C
:1038B0000501B659066EEE500501B759076E04C0F2
:1038C00026F005C027F006C028F007C029F0AAECB2
:1038D00021F027C000F028C001F029C002F02AC062
:1038E00003F000C02CF001C02DF002C02EF003C088
:1038F0002FF0BCC527F0BDC528F0BEC529F0BFC557
:103900002AF0C5EC21F027C0BCF528C0BDF529C0C0
:10391000BEF52AC0BFF5B4C5C1F5B5C5C2F5B6C57B
:10392000C3F5B7C5C4F505013F0EC56F04D24B0EF4
:103930000101005D01E04FD1140E0101E76E021993
:10394000E8AE02D0023503D0E750D880025501E23C
:1039500021D1080E0101E76E0119E8AE02D0E7346B
:1039600002D0E750015D01E315D102C1E6FF01C1BC
:10397000E6FF8AEC17F0E552E5525E0EDB6A080EB0
:10398000F36E5E0EDBCFF4FFF350F45C1BE25E0ED1
:10399000DB50040FEA6A000FE96E010EEA22EF50D5
:1039A000E66E080E01010103F3CF00F05E0EDB505E
:1039B000100F0024E66E8AEC17F0E552E5525E0E19
:1039C000DB2ADDD70101035101E1ABD0400EE66EE9
:1039D000D8EC1FF0E552D9504F0FE66E000EDA20FA
:1039E000E66EE6EC1FF0E552E552790EE66E010E4A
:1039F000E66E44EC0EF0E552E5520501DF51E66E4D
:103A0000E66AC90EE66E050EE66E790EE66E010EEA
:103A1000E66EADEC0EF0006E060EE15E0050AD0EEF
:103A2000E66E010EE66E44EC0EF0E552E55205013D
:103A3000F851E66EE66AF50EE66E050EE66EAD0E20
:103A4000E66E010EE66EADEC0EF0006E060EE15E67
:103A50000050450EE66E010EE66E44EC0EF0E552A7
:103A6000E5525E0EDB6A01010351F36E5E0EDBCFA1
:103A7000F4FFF350F45C17E25E0EDB500C0FEA6AC1
:103A8000000FE96E010EEA22EF50E66E5E0EDB508B
:103A9000EA6A470FE96E010EEA22E552E750EF6E3F
:103AA0005E0EDB2AE0D703C145F10101466B45BF3D
:103AB0004669790EE66E010EE66EAD0EE66E010EFB
:103AC000E66E450EE66E010EE66E61EC11F0006EDC
:103AD000060EE15E00505E0EDB6A01010251F36EDC
:103AE0005E0EDBCFF4FFF350F45C1AE25E0EDB50A7
:103AF000EA6A470FE96E010EEA22EF50E66E140EF5
:103B000001010103F3CF00F05E0EDB50500F0024E3
:103B1000E66E8AEC17F0E552E5525E0EDB2ADDD741
:103B200026D05E0EDB6A01010251F36E5E0EDBCF22
:103B3000F4FFF350F45C1BE25E0EDB500C0FEA6AFC
:103B4000000FE96E010EEA22EF50E66E140E01013D
:103B50000103F3CF00F05E0EDB50500F0024E66E41
:103B60008AEC17F0E552E5525E0EDB2ADCD75E0EDA
:103B7000DB50040FEA6A000FE96E010EEA22EF50F3
:103B8000FF0803E10501010EC76F01C1C0F5050182
:103B90003F0EC56F580EDB6A590EDB6A580EDBCF3D
:103BA00000F0590EDBCF01F0400E005C000E015812
:103BB00011E2580EDBCFE9FF590EDBCFEAFF000E12
:103BC000E926010EEA22EF6A580EDB2A590E01E3BC
:103BD000DB2AE4D7B0D04C0E0101005D42E1600E5B
:103BE000DB6A080EF36E600EDBCFF4FFF350F45C7B
:103BF00037E25E0EDB6A080EF36E5E0EDBCFF4FF7B
:103C0000F350F45C2AE2D9505F0FE66E000EDA2022
:103C1000E66E5E0EDBCFE6FF600EDB50080DF35064
:103C2000100FE552E724E66EA6EC17F0E552E552D8
:103C3000E5525E0EDBCFE6FF600EDB50080DF35061
:103C4000E552E724EA6A000FE96E010EEA225F0EF0
:103C5000DBCFEFFF5E0EDB2ACED7600EDB2AC1D7AB
:103C60006AD0430E0101005D51E1DFC500F15E0E37
:103C7000DB6A0501DF51F36E5E0EDBCFF4FFF3501C
:103C8000F45C16E25E0EDB50EA6AC90FE96E050EBF
:103C9000EA22EF50E66E5E0EDB28EA6A000FE96E5C
:103CA000010EEA22E552E750EF6E5E0EDB2AE1D705
:103CB0000501DF29EA6A000FE96E010EEA22F4C568
:103CC000EFFF5E0EDB6A0501F451F36E5E0EDBCF93
:103CD000F4FFF350F45C19E25E0EDB50EA6AE00F89
:103CE000E96E050EEA22EF50E66E5E0EDB5005012E
:103CF000DF25020FEA6A000FE96E010EEA22E552A3
:103D0000E750EF6E5E0EDB2ADED715D0440E0101C0
:103D1000005D11E10101550E016F0101550E026FA9
:103D20000101550E036F0101550E046F0101030ED1
:103D3000056F01010669610EDB500EE004010CBF46
:103D4000FDD7400EE66E000EE66E010EE66EFAEC52
:103D500026F0E552E552E552630EE15C02E2E16ACB
:103D6000E552E16EE552E7CFD9FF1200D9CFE6FF69
:103D7000E1CFD9FF020EE126DE6ADD6ADECF00F078
:103D8000DDCF01F0FD0EDBCF02F0FE0EDBCF03F046
:103D90000250005C0350015805E2DF2A010EEEE3F9
:103DA000DB2AECD7020EE15C02E2E16AE552E16E49
:103DB000E552E7CFD9FF12009396818693809382D4
:103DC000120093809382010EE66EE66ACFDFE55221
:103DD000E55281909390010EE66EE66AC7DFE552E8
:103DE000E5528192939212008192939281909390E6
:103DF000010EE66EE66ABADFE552E5529382010EE5
:103E0000E66EE66AB3DFE552E55293801200D9CF41
:103E1000E6FFE1CFD9FFE65293909392DF6A080E56
:103E2000DF5C1AE2FE0EDBAE02D0818001D0819011
:103E300000008182010EE66EE66A98DFE552E552E7
:103E40008192070EDF5C06E2FE0EDB50020DFE0ED5
:103E5000F3CFDBFFDF2AE3D7938000008182010EDE
:103E6000E66EE66A83DFE552E5528150010BDF6EB4
:103E70008192DF5000D0E552E552E7CFD9FF120022
:103E8000D9CFE6FFE1CFD9FF9CDF7C0EE66EBFDF26
:103E9000E552000916E1800EE66EB9DFE552000931
:103EA00010E1FE0EDBCFE6FFB2DFE552000909E1CB
:103EB0009BDF1E0EE66EE66A59DFE552E552000E04
:103EC00002D092DF010EE552E7CFD9FF12009380B6
:103ED000938281961E0EE66EE66A48DFE552E55251
:103EE0009386120069DF300EE66E750EE66E3EDFD9
:103EF000E552E552380EE66EC3DFE552390EE66E46
:103F0000BFDFE552140EE66EBBDFE552700EE66EC3
:103F1000B7DFE552520EE66EB3DFE5526C0EE66E89
:103F2000AFDFE552300EE66E750EE66E1FDFE5522E
:103F3000E552380EE66EA4DFE5520C0EE66EA0DF09
:103F4000E552010EE66E9CDFE552300EE66E750E10
:103F5000E66E0CDFE552E5521200010EE66E90DFD0
:103F6000E552E80EE66E030EE66E00DFE552E5521E
:103F70001200D9CFE6FFE1CFD9FF23DF7C0EE66E3A
:103F800046DFE552000909E1C00EE66E40DFE5526A
:103F9000FE0EDBCFE6FF3BDFE55226DF1E0EE66EB0
:103FA000E66AE4DEE552E552E552E7CFD9FF1200BA
:103FB000D9CFE6FFE1CFD9FFFE0EDB508009E66ED8
:103FC0005FDFE552E552E7CFD9FF1200D9CFE6FF18
:103FD000E1CFD9FF020EE126DE6ADD6ADECF00F016
:103FE000DDCF01F0D890015004E6080E005C000E11
:103FF000015823E2FD0EDBCF00F0FE0EDBCF01F017
:10400000DE500024E96EDD500120EA6EEF5015E02D
:10401000FD0EDBCF00F0FE0EDBCF01F0DE50002402
:10402000E96EDD500120EA6EEF50E66EA2DFE55248
:10403000DF2A010ED3E3DB2AD1D7020EE15C02E2D4
:10404000E16AE552E16EE552E7CFD9FF1200D9CF20
:10405000E6FFE1CFD9FF030EE126F36E010EF3CFA9
:10406000DBFF020EDB6A010EDBCF00F0020EDBCFBE
:1040700001F00001800E01144AE1FD0EDBCF02F0D9
:10408000FE0EDBCF03F0040E286E296A010EDBCF93
:104090002DF0020EDBCF2EF085EC22F0265002C070
:1040A00000F003C001F005E0D89001320032E804CE
:1040B000FBE10F0E0014DF6EDFCF00F00A0EE76E9B
:1040C0000018E8AE02D0E73402D0E750005C02E20C
:1040D000300E01D0370EDF26010EDBCF00F0020ECE
:1040E000DBCF01F0FC0EDB50000101AE02D0D89016
:1040F00003D0005C000E015804E2DFCFE6FF39DF99
:10410000E552010EDB06020EAEE2DB06ACD7030E73
:10411000E15C02E2E16AE552E16EE552E7CFD9FFE8
:104120001200D9CFE6FFE1CFD9FF070EE126010E3D
:10413000F36E020EF3CFDBFF030EDB6A040EDB6AC5
:10414000050EDB6AFA0EDB5001E1FAD0DE6ADD6AA9
:10415000DECF00F0DDCF01F0FA0EDB50000101AE42
:1041600002D0D89003D0005C000E015821E2D95053
:10417000020FE96EDACFEAFF0A0E2B6E2C6A2D6A67
:104180002E6AEECF26F0EECF27F0EECF28F0EFCF5D
:1041900029F0A5EC29F025C0EDFF24C0EDFF23C0D8
:1041A000EDFF22C0EFFFDF2A010ED2E3DB2AD0D7DA
:1041B000FB0EDBCF00F0FC0EDBCF01F0FD0EDBCF02
:1041C00002F0FE0EDBCF03F000C026F001C027F0A6
:1041D00002C028F003C029F0020EDBCF2BF0030E43
:1041E000DBCF2CF0040EDBCF2DF0050EDBCF2EF055
:1041F000DDEC29F0FB0E22C0DBFFFC0E23C0DBFF51
:10420000FD0E24C0DBFFFE0E25C0DBFFDE6ADD6A8B
:10421000DECF00F0DDCF01F0FA0EDB50000101AE81
:1042200002D0D89003D0005C000E015801E388D082
:10423000D950020FE96EDACFEAFF0A0E2B6E2C6A14
:104240002D6A2E6AEECF26F0EECF27F0EECF28F0C3
:10425000EFCF29F0DDEC29F029C0EDFF28C0EDFFFC
:1042600027C0EDFF26C0EFFFFB0EDBCF04F0FC0EF6
:10427000DBCF05F0FD0EDBCF06F0FE0EDBCF07F047
:1042800004C026F005C027F006C028F007C029F0BA
:10429000020EDBCF2BF0030EDBCF2CF0040EDBCFB6
:1042A0002DF0050EDBCF2EF0DDEC29F026C000F05E
:1042B00027C001F028C002F029C003F0300E00260C
:1042C000000E012202220322060E00C0DBFFFB0EBD
:1042D000DBCF00F0FC0EDBCF01F0FD0EDBCF02F0F8
:1042E000FE0EDBCF03F000C026F001C027F002C0B5
:1042F00028F003C029F0020EDBCF2BF0030EDBCF3A
:104300002CF0040EDBCF2DF0050EDBCF2EF0DDEC14
:1043100029F0FB0E22C0DBFFFC0E23C0DBFFFD0EED
:1043200024C0DBFFFE0E25C0DBFF060EDBCFE6FF61
:1043300020DEE552DF2A010E01E26AD7DB2A68D7C8
:10434000070EE15C02E2E16AE552E16EE552E7CF79
:10435000D9FF1200219E0CD0219E29AE09D0266CD7
:10436000271E281E291EE86A272228222922218E9C
:1043700029C023F028C022F027C033F026C032F035
:104380009E0E246E256A23EF23F0216A5FEC23F052
:1043900077EC23F021B607EF23F021A205D021BA54
:1043A00007EF23F00EEF23F021BA1AEF23F021A03C
:1043B00005D021B807EF23F01AEF23F021B80EEF54
:1043C00023F0256A7F0E2A24246EE86A25222F50C6
:1043D000245EE86A255A1A0E306E2A6A326A336AF7
:1043E000226A236A2C50275E2D50285A2E50295AB3
:1043F000000E2A5A09E72C5027262D5028222E502D
:104400002922000E2A2201D0328AD8902736283657
:1044100029362A36D8903236333622362336302E95
:10442000E1D7295028102710D8A4328A23EF23F08F
:10443000216A5FEC23F077EC23F021B607EF23F03D
:1044400021A205D021B807EF23F00EEF23F021AA17
:1044500005D021B007EF23F00EEF23F021B002D0FA
:1044600021A802D01AEF23F0256A2F502A24246EA7
:10447000E86A25227E0E245EE86A255A326A336A8B
:10448000226A236A2E502902F4CF23F0F3CF22F0C0
:104490002D502902F3503326F4502222000E2322FD
:1044A0002E502802F3503326F4502222000E2322ED
:1044B0002C502902F3503226F4503322000E2222CF
:1044C00023222D502802F3503226F4503322000EBE
:1044D000222223222E502702F3503226F450332278
:1044E000000E222223222C502802F4503226000EE5
:1044F0003322222223222D502702F4503226000E8E
:1045000033222222232223EF23F029C033F028C0B4
:1045100032F028502D02F4CF27F0F3CF26F02950A7
:104520002E02F4CF29F0F3CF28F02D02F3502726E6
:10453000F4502822E86A292232502E02F35027260E
:10454000F4502822E86A29222EAEABEF22F0325036
:10455000285E3350295A33AE000C2D50285E2E5061
:10456000295A000C28C032F028502D02F4CF27F031
:10457000F3CF26F029502E02F4CF29F0F3CF28F004
:104580002D02F3502726F4502822E86A29223250BF
:104590002E02F3502726F4502822E86A2922000C24
:1045A000216A5FEC23F021B6DAEF22F021A20FD0CE
:1045B00021B407D07F0E296EFF0E286E276E266E5F
:1045C00025D0800E296E01D0296A000EF6D721B0C1
:1045D000FBD7266A9F0E2A60EBD77E0E2A64F4D79B
:1045E0009E0E2A5C07E0D8902932283227322632E4
:1045F0002A2AF6D721A40AD0266C271E281E291E97
:10460000E86A27222822292229AEDED712007F0E4F
:104610002A6EFF0E296E286E276E12007F0E21BEB5
:10462000FF0E2A6E02D07F0E2A6E800E296E286A37
:10463000276AF3D721AE04D0800E2A6E296AF7D7F5
:104640002A6A296AF4D72350221033103210F8E076
:1046500025BEF0D723BE0CD024502510EBE0D89017
:1046600032363336223623362406D8A02506F2D732
:104670002550D4E12428D2E032AE11D07F0E32147E
:1046800002E133A00CD0332AE86A2222232207E376
:10469000D880233222323332242A2428BFE0245007
:1046A000C9E033C027F022C028F02334296E24301B
:1046B0002A6E29322A9E21BE2A8E0DEF23F029363A
:1046C0002A3602E32184217E06E121802A6A296AB2
:1046D000286A276A12002A2803E0D88029321200AB
:1046E000D890293202E121821200218612002E3652
:1046F0002F3602E3218C217E06E121882F6A2E6A63
:104700002D6A2C6A12002F2803E0D8802E32120066
:10471000D8902E32EAE1218A120004011051600B78
:10472000E842E842E842E842E842000901E01200BB
:104730001151070A4CE00B0A4AE0070A3BE0010A64
:1047400027E00B0A23E0020A21E0030A1DE0080A21
:1047500012E0010A0EE00F0A0AE0030A01E012006B
:104760000101010EEC6F0501040EF96F1200E8EF74
:1047700023F03FEF24F00101010EEC6F0101FB0E6D
:10478000ED6F050EEE6F10D066EF24F0B1EF24F060
:104790000101010EEC6F040114510101ED6FEE6B8C
:1047A000FC0EED27050EEE230501FA930101010E23
:1047B000F16F12000101010EEC6F04011451EA6A5D
:1047C000FC0FE96E050EEA2212C4EFFF1200120080
:1047D000800E0401105D52E11351030A30E0010A1A
:1047E0000CE0030A49E10101010EEC6F0101A40E86
:1047F000ED6F510EEE6F120E3CD00101010EEC6F09
:1048000004011251F66EF76AD890F636F7369E0E0E
:10481000F626520EF7220900F5CFEDF10A00F5CF8A
:10482000EEF1020E0101F76AED25F66EEE51F72268
:104830000900F5CFF1F10A00F5CFF2F11DD0010129
:10484000010EEC6F04011251F66EF76AD890F6363D
:10485000F736A20EF626520EF7220900F5CFEDF13B
:104860000A00F5CFEEF1EDC1F6FFEEC1F7FF08004B
:10487000F5500101F16FF26B0501FA83120001019D
:10488000010EEC6F0F0EE66E710EE66E0F0EE66E09
:104890002DEC28F0E552E552E552010EE66EFC0ED5
:1048A000E66E050EE66E2DEC28F0E552E552E55277
:1048B00012C4FBF50401125104E10501050EF96F64
:1048C00012000501060EF96FE5EF26F00401186BE2
:1048D000196B040110511F0B020A13E0030A0DE0CB
:1048E000010A31E10101010EEC6F0401188105019B
:1048F000FAA129D00401188326D00101010EEC6F22
:1049000022D00101010EEC6F040114510F0B080DB0
:10491000F350016A000F006E040E01221451800B47
:1049200001E0010E040DF35001010024EF6F000EB1
:104930000120F06FEFC1E9FFEA6EEF50040B03E0D6
:104940000401010E186F0101EC050AE10101180EC6
:10495000ED6F040EEE6F0501FA930101020EF16F87
:1049600012000401120510E110511F0B00090CE1A7
:104970000101010EEC6F030E0401115D03E105015D
:10498000FA8102D00501FA91040112513AE1105165
:104990001F0B020836E114510F0B000932E0010130
:1049A000010EEC6F040114510F0B080DF350016A56
:1049B000000F006E040E01221451800B01E0010E65
:1049C000040DF35001010024EF6F000E0120F06F81
:1049D000030E0401115D07E1840EEFC1E9FFF0C190
:1049E000EAFFEF6E120014AF06D0EFC1E9FFF0C18D
:1049F000EAFFEF6A1200880EEFC1E9FFF0C1EAFF9B
:104A0000EF6E12006C500BE1040100513C0BE842C8
:104A1000E8420D0802E114EF25F049EF25F0040EFD
:104A20006C5C01E145D81200D9CFE6FFE1CFD9FF98
:104A3000E6520101EB6BEC6BF16BF26B8DEC23F04A
:104A4000DF6ADF50006E016A010E005C000E015843
:104A50001AE20101EC5117E1F76ADF34FE0BF73679
:104A6000F66EAA0EF626520EF7220900F5CF00F0D8
:104A70000800F5CF01F004D001C0FAFF0050F96E34
:104A8000FBDFDF2ADED7D9D8E552E552E7CFD9FFE1
:104A90001200020E0101EB5D09E192D8040100BD94
:104AA00002D0C80E01D0880E006F120062EF26F00F
:104AB000040E0501F95D09E112C46EFF6E50000895
:104AC00002E2050E01D0030EF96F0101EB0509E1C9
:104AD0000AD8040104BD02D0C80E01D0880E046FAC
:104AE000120062EF26F0D9CFE6FFE1CFD9FF020E28
:104AF000E1260101080EF15D000EF25905E2F1C157
:104B0000DEFFF2C1DDFF03D0080EDE6EDD6A0401B8
:104B100004930491010EDB500413DFCF05F4000E63
:104B2000DB500101F15F010EDB50F25B180EEF6FFD
:104B3000040EF06F0501FAA31DD0D9CFE9FFDACF3B
:104B4000EAFFEE50ED1032E0EDC1F6FFEEC1F7FFE7
:104B50000800F550EFC1E9FFF0C1EAFFEF6E010177
:104B6000EF2B000EF023ED2BEE23DF06010EE5E226
:104B7000DB06E3D7D9CFE9FFDACFEAFFEE50ED103D
:104B800015E0EDC1E9FFEEC1EAFFEF50EFC1E9FF2B
:104B9000F0C1EAFFEF6E0101EF2B000EF023ED2BC9
:104BA000EE23DF06010EE6E2DB06E4D7020EE15C4F
:104BB00002E2E16AE552E16EE552E7CFD9FF120069
:104BC000D9CFE6FFE1CFD9FF020EE126030E0401A3
:104BD0000015E76E010EE7CFDBFF01C4DFFFDE50FB
:104BE0000101F127DD50F223180EED6F040EEE6F78
:104BF000D9CFE9FFDACFEAFFEE50ED1014E0EDC1B6
:104C0000E9FFEEC1EAFFEF50EFC1E9FFF0C1EAFFB3
:104C1000EF6EEF2B000EF023ED2BEE23DF06010EDF
:104C2000E7E2DB06E5D7020EE15C02E2E16AE5526B
:104C3000E16EE552E7CFD9FF12000101EC510BE123
:104C40000401080E016F100E026F040E036F840E34
:104C5000006F040123D0040110AF22D00101F151F3
:104C60000401165D0101F2510401175904E216C452
:104C7000F1F117C4F2F137DF0101010EEB6F04010E
:104C8000080E016F100E026F040E036F800E006F8E
:104C90000401180E066F040E076FC80E046F10D0C3
:104CA0000101020EEB6F0401056BC80E046F0401D5
:104CB000080E016F180E026F040E036FC80E006F0E
:104CC0006D9812000101EB6B0401080E016F100ECC
:104CD000026F040E036F880E006F0401046B120054
:104CE000040110511F0B010801E01200145101E0F2
:104CF0001200060E115D28E11351230A23E0010A78
:104D00000FE0030A1FE10101020EEC6F0501FB0534
:104D100005E10101C80EED6F510EEE6F090E0FD0C7
:104D20000101020EEC6F0501FB0505E10101810E99
:104D3000ED6F520EEE6F0501FB0504E11D0E010142
:104D4000F16FF26B0501FA8304011051600BE84228
:104D5000E842E842E842E842010801E0120011514D
:104D60000B0A2BE0080A1BE0090A13E0080A09E015
:104D70000B0A05E0080A01E01200E3EF26F0E4EF79
:104D800026F00101020EEC6F0101FD0EED6F050E24
:104D90000DD00101020EEC6F13C4FDF512000101EC
:104DA000020EEC6F0101FE0EED6F050EEE6F0501B8
:104DB000FA930101010EF16F12000101020EEC6F76
:104DC00012C4FEF51200120012000501FF6B1E0E48
:104DD000716E0401400E096F200E0A6F040E0B6FF6
:104DE000880E086F0401600E0E6F040E0F6F400EE8
:104DF0000C6F1200D9CFE6FFE1CFD9FFE652FC0ECF
:104E0000DB50400805E2400EF36EFC0EF3CFDBFFF3
:104E1000DF6AFC0EDB50DF5C19E2DF50E76EFD0E4F
:104E2000DBCFE9FFFE0EDBCFEAFFE750E926000EFD
:104E3000EA22EF50E66EDF50EA6A600FE96E040E78
:104E4000EA22E552E750EF6EDF2AE3D7FC0EDBCF14
:104E50000DF4400E04010C170C7D880E0C13E55266
:104E6000E552E7CFD9FF1200D9CFE6FFE1CFD9FF56
:104E70000501FF6B040108BF30D0FC0EDBCF00F052
:104E80000951D880005403E2FC0E09C4DBFF050180
:104E9000FF6BFC0EDB50FF5D19E2FF51EA6A200F49
:104EA000E96E040EEA22EF50E66EFF51E76EFD0E4A
:104EB000DBCFE9FFFE0EDBCFEAFFE750E926000E6D
:104EC000EA22E552E750EF6EFF2BE3D70401400ED4
:104ED000096F0817087D880E08130501FF51E55278
:104EE000E7CFD9FF120081A808D06DB60DD0FC0E17
:104EF000D3140009D36E14D807D06DA605D017D8E7
:104F0000FC0ED3140209D36E0501F90508E16DBA50
:104F100006D0686A696A69806988020EF96F1200B2
:104F20006D6A696A6D860501010EF96F12006D6A7E
:104F3000696A0501F96B120097EF27F00501F95135
:104F400001E112006850040B04E06950040B01E019
:104F500041D86DB212006850010B04E06950010B9A
:104F600001E059D86850100B04E06950100B01E0C3
:104F700024D86850400B04E06950400B01E040D851
:104F80006850200B04E06950200B01E03BD86850CA
:104F9000020B04E06950020B01E03BD8030E05014F
:104FA000F95D01E212006850080B06E06950080B39
:104FB00003E002EC25F068961200698468986D821F
:104FC000A19AF290A08AF2860300F2B007D8A09AC4
:104FD000F29612006D926994689412000501FAA18C
:104FE0000ED0F8DF6D840101080EF36F070EF46F29
:104FF000F307000EF45BF351F411FAE16D94120023
:10500000689C120070A003D062EC26F07090689A41
:105010001200689212006A6A686A9F0E6B6E7B0EBD
:10502000696E6E6A0F0EE66E710EE66E0F0EE66E1C
:1050300014D8E552E552E552160E706E68A602D0FD
:105040006896FCD76D9862EC26F00501FA9105018F
:10505000FB6B0501030EF96F1200D9CFE6FFE1CF1C
:10506000D9FFFD0EDBCFE9FFFE0EDBCFEAFFFC0E22
:10507000DB5004E0EE6AFC0EDB06F9D7E552E7CF21
:10508000D9FF1200DACFE4FFE2CFDAFFE9CFE4FF85
:10509000EACFE4FFF3CFE4FFF4CFE4FF00EE20F02B
:1050A000140EE80403E3EECFE4FFFBD7E6529EA024
:1050B00017D0CF8E9E900501B42B000EB523B623DA
:1050C000B72305013F0EC56F81A80AD06DB606D083
:1050D000FC0ED3140009D36E90EC27F00501C86BC9
:1050E000E55200EE33F0140EE80403E3E5CFEDFFE4
:1050F000FBD7E5CFF4FFE5CFF3FFE5CFEAFFE5CF40
:10510000E9FFE5CFDAFF1100D8CFE4FFE0CFE4FFFD
:10511000E46EDACFE4FFE652F0A212D0F09205017D
:10512000C86B05013F0EC56FB4C5C1F5B5C5C2F565
:10513000B6C5C3F5B7C5C4F5FC0ED3140009D36ECC
:10514000E552E5CFDAFFE550E5CFE0FFE5CFD8FF48
:105150001000D9CFE6FFE1CFD9FFE6520FD8F250C9
:10516000800B01E0010EDF6EF29E15D8DF50E8B033
:10517000F28EE8A0F29E28EC18F0F1D70F0EC112C3
:105180009388140E6F6E0501F96B0501FA6B05012A
:10519000FB6BBDEF17F073EC27F06FBE02D09EECF7
:1051A00027F0120012010002000000084D52110009
:1051B00001000102030209022900010102803209F3
:1051C0000400000203000000092101000001221D6B
:1051D00000070581034000010705010340000109A4
:1051E00002200001010280320904000002FF0000D9
:1051F0000007058103400001070501034000010489
:1052000003090428034D0069007A007500740061E9
:10521000006E00690020004C00610062006F0072A7
:1052200000610074006F0072007900400341006C5F
:10523000007400650072006E006100740069007601
:105240000065002000540077006F002D00660061AB
:1052500000630074006F007200200041007500744C
:1052600000680020004400650076001603440065D5
:105270000076003000300030003000300030003167
:10528000000600FF0901A10119012940150026FFB0
:1052900000750895408102190129409102C0B6515C
:1052A000DF51FF5103522B526B52E04C1E0EF66E33
:1052B000000EF76E000EF86E01010900F550E66F62
:1052C0000900F550E76F03E1E66701D03DD0090022
:1052D000F550E16F0900F550E26F0900F550E36FFA
:1052E00009000900F550E96E0900F550EA6E090061
:1052F00009000900F550E46F0900F550E56F090059
:105300000900F6CFE8F1F7CFE9F1F8CFEAF1E1C112
:10531000F6FFE2C1F7FFE3C1F8FF0101E45302E148
:10532000E55307E00900F550EE6EE407F8E2E50703
:10533000F9D7E8C1F6FFE9C1F7FFEAC1F8FF0101BB
:10534000E607000EE75BBFD7120026502B02F3CF13
:1053500022F0F4CF23F02C02F3502326000EF42089
:10536000246E26502D02F3502426000EF420256EC4
:1053700026502E02F350252627502B02F3502326C9
:10538000F4502422000E252227502C02F35024260C
:10539000F450252227502D02F350252628502B02A9
:1053A000F3502426F450252228502C02F3502526B1
:1053B00029502B02F35025261200256A246A236AFD
:1053C000226A200EE76ED8902636273628362936F0
:1053D00022362336243625362B50225C2C50235877
:1053E0002D5024582E50255809E32B50225E2C5066
:1053F000235A2D50245A2E50255A262AE72EE4D718
:105400001200000EF36E00EE00F0080E01D812003C
:10541000EA6002D0EE6AFCD7F350E9601200EE6A4F
:10542000FCD713EE00F023EE00F0F86A219C56EC56
:1054300029F003EC00F0A9EC28F0FBD712000000E3
:105440000000000000000000000000000000003F1D
:10545000000000BDEEC619BF0E8F582F41E4826ECA
:1054600004608B6359AB152600163F275D0B8D60DA
:10547000583464D7139B23B905FF21AC290F14833B
:10548000020003FFFFFFFFFFFFFFFFFFFFFFFFFF24
:10549000FFFFFFFFFFFFFFFFFFFFFFFFFFFFFFFF1C
:1054A000FFFFFFFFFFFFFFFFFFFFFFFFFFFFFFFF0C
:1054B000FFFFFFFFFFFFFFFFFFFFFFFFFFFFFFFFFC
:1054C000FFFFFFFFFFFFFFFFFFFFFFFFFFFFFFFFEC
:020000040030CA
:0E0000002C0E391E00018100000000800F4010
:020000040020DA
:08000000FFFFFFFFFFFFFFFF00
:00000001FF
